{
  "_format": "hh-sol-artifact-1",
  "contractName": "ResearchRegistry",
  "sourceName": "contracts/ResearchRegistry.sol",
  "abi": [
    {
      "anonymous": false,
      "inputs": [
        {
          "indexed": true,
          "internalType": "uint256",
          "name": "researchId",
          "type": "uint256"
        },
        {
          "indexed": true,
          "internalType": "address",
          "name": "author",
          "type": "address"
        },
        {
          "indexed": false,
          "internalType": "string",
          "name": "title",
          "type": "string"
        },
        {
          "indexed": false,
          "internalType": "string",
          "name": "ipfsHash",
          "type": "string"
        }
      ],
      "name": "ResearchSubmitted",
      "type": "event"
    },
    {
      "inputs": [
        {
          "internalType": "uint256",
          "name": "researchId",
          "type": "uint256"
        }
      ],
      "name": "getResearch",
      "outputs": [
        {
          "components": [
            {
              "internalType": "address",
              "name": "author",
              "type": "address"
            },
            {
              "internalType": "string",
              "name": "title",
              "type": "string"
            },
            {
              "internalType": "string",
              "name": "ipfsHash",
              "type": "string"
            },
            {
              "internalType": "uint256",
              "name": "timestamp",
              "type": "uint256"
            }
          ],
          "internalType": "struct ResearchRegistry.Research",
          "name": "",
          "type": "tuple"
        }
      ],
      "stateMutability": "view",
      "type": "function"
    },
    {
      "inputs": [],
      "name": "researchCount",
      "outputs": [
        {
          "internalType": "uint256",
          "name": "",
          "type": "uint256"
        }
      ],
      "stateMutability": "view",
      "type": "function"
    },
    {
      "inputs": [
        {
          "internalType": "uint256",
          "name": "",
          "type": "uint256"
        }
      ],
      "name": "researchPapers",
      "outputs": [
        {
          "internalType": "address",
          "name": "author",
          "type": "address"
        },
        {
          "internalType": "string",
          "name": "title",
          "type": "string"
        },
        {
          "internalType": "string",
          "name": "ipfsHash",
          "type": "string"
        },
        {
          "internalType": "uint256",
          "name": "timestamp",
          "type": "uint256"
        }
      ],
      "stateMutability": "view",
      "type": "function"
    },
    {
      "inputs": [
        {
          "internalType": "string",
          "name": "title",
          "type": "string"
        },
        {
          "internalType": "string",
          "name": "ipfsHash",
          "type": "string"
        }
      ],
      "name": "submitResearch",
      "outputs": [],
      "stateMutability": "nonpayable",
      "type": "function"
    }
  ],
  "bytecode": "0x6080604052348015600f57600080fd5b50610da48061001f6000396000f3fe608060405234801561001057600080fd5b506004361061004c5760003560e01c8063351a264314610051578063620d744d1461006d5780636f864a621461008b578063e3e02ba7146100be575b600080fd5b61006b600480360381019061006691906106d6565b6100ee565b005b610075610228565b6040516100829190610767565b60405180910390f35b6100a560048036038101906100a091906107ae565b61022e565b6040516100b5949392919061089b565b60405180910390f35b6100d860048036038101906100d391906107ae565b61038e565b6040516100e591906109c0565b60405180910390f35b6001600081548092919061010190610a11565b919050555060405180608001604052803373ffffffffffffffffffffffffffffffffffffffff16815260200183815260200182815260200142815250600080600154815260200190815260200160002060008201518160000160006101000a81548173ffffffffffffffffffffffffffffffffffffffff021916908373ffffffffffffffffffffffffffffffffffffffff16021790555060208201518160010190816101ad9190610c65565b5060408201518160020190816101c39190610c65565b50606082015181600301559050503373ffffffffffffffffffffffffffffffffffffffff166001547ffbb7e2ee4050b5ba0aa5b7c59c98758358677912922270913a420b34550d55a1848460405161021c929190610d37565b60405180910390a35050565b60015481565b60006020528060005260406000206000915090508060000160009054906101000a900473ffffffffffffffffffffffffffffffffffffffff169080600101805461027790610a88565b80601f01602080910402602001604051908101604052809291908181526020018280546102a390610a88565b80156102f05780601f106102c5576101008083540402835291602001916102f0565b820191906000526020600020905b8154815290600101906020018083116102d357829003601f168201915b50505050509080600201805461030590610a88565b80601f016020809104026020016040519081016040528092919081815260200182805461033190610a88565b801561037e5780601f106103535761010080835404028352916020019161037e565b820191906000526020600020905b81548152906001019060200180831161036157829003601f168201915b5050505050908060030154905084565b61039661053e565b6000808381526020019081526020016000206040518060800160405290816000820160009054906101000a900473ffffffffffffffffffffffffffffffffffffffff1673ffffffffffffffffffffffffffffffffffffffff1673ffffffffffffffffffffffffffffffffffffffff16815260200160018201805461041990610a88565b80601f016020809104026020016040519081016040528092919081815260200182805461044590610a88565b80156104925780601f1061046757610100808354040283529160200191610492565b820191906000526020600020905b81548152906001019060200180831161047557829003601f168201915b505050505081526020016002820180546104ab90610a88565b80601f01602080910402602001604051908101604052809291908181526020018280546104d790610a88565b80156105245780601f106104f957610100808354040283529160200191610524565b820191906000526020600020905b81548152906001019060200180831161050757829003601f168201915b505050505081526020016003820154815250509050919050565b6040518060800160405280600073ffffffffffffffffffffffffffffffffffffffff1681526020016060815260200160608152602001600081525090565b6000604051905090565b600080fd5b600080fd5b600080fd5b600080fd5b6000601f19601f8301169050919050565b7f4e487b7100000000000000000000000000000000000000000000000000000000600052604160045260246000fd5b6105e38261059a565b810181811067ffffffffffffffff82111715610602576106016105ab565b5b80604052505050565b600061061561057c565b905061062182826105da565b919050565b600067ffffffffffffffff821115610641576106406105ab565b5b61064a8261059a565b9050602081019050919050565b82818337600083830152505050565b600061067961067484610626565b61060b565b90508281526020810184848401111561069557610694610595565b5b6106a0848285610657565b509392505050565b600082601f8301126106bd576106bc610590565b5b81356106cd848260208601610666565b91505092915050565b600080604083850312156106ed576106ec610586565b5b600083013567ffffffffffffffff81111561070b5761070a61058b565b5b610717858286016106a8565b925050602083013567ffffffffffffffff8111156107385761073761058b565b5b610744858286016106a8565b9150509250929050565b6000819050919050565b6107618161074e565b82525050565b600060208201905061077c6000830184610758565b92915050565b61078b8161074e565b811461079657600080fd5b50565b6000813590506107a881610782565b92915050565b6000602082840312156107c4576107c3610586565b5b60006107d284828501610799565b91505092915050565b600073ffffffffffffffffffffffffffffffffffffffff82169050919050565b6000610806826107db565b9050919050565b610816816107fb565b82525050565b600081519050919050565b600082825260208201905092915050565b60005b8381101561085657808201518184015260208101905061083b565b60008484015250505050565b600061086d8261081c565b6108778185610827565b9350610887818560208601610838565b6108908161059a565b840191505092915050565b60006080820190506108b0600083018761080d565b81810360208301526108c28186610862565b905081810360408301526108d68185610862565b90506108e56060830184610758565b95945050505050565b6108f7816107fb565b82525050565b600082825260208201905092915050565b60006109198261081c565b61092381856108fd565b9350610933818560208601610838565b61093c8161059a565b840191505092915050565b6109508161074e565b82525050565b600060808301600083015161096e60008601826108ee565b5060208301518482036020860152610986828261090e565b915050604083015184820360408601526109a0828261090e565b91505060608301516109b56060860182610947565b508091505092915050565b600060208201905081810360008301526109da8184610956565b905092915050565b7f4e487b7100000000000000000000000000000000000000000000000000000000600052601160045260246000fd5b6000610a1c8261074e565b91507fffffffffffffffffffffffffffffffffffffffffffffffffffffffffffffffff8203610a4e57610a4d6109e2565b5b600182019050919050565b7f4e487b7100000000000000000000000000000000000000000000000000000000600052602260045260246000fd5b60006002820490506001821680610aa057607f821691505b602082108103610ab357610ab2610a59565b5b50919050565b60008190508160005260206000209050919050565b60006020601f8301049050919050565b600082821b905092915050565b600060088302610b1b7fffffffffffffffffffffffffffffffffffffffffffffffffffffffffffffffff82610ade565b610b258683610ade565b95508019841693508086168417925050509392505050565b6000819050919050565b6000610b62610b5d610b588461074e565b610b3d565b61074e565b9050919050565b6000819050919050565b610b7c83610b47565b610b90610b8882610b69565b848454610aeb565b825550505050565b600090565b610ba5610b98565b610bb0818484610b73565b505050565b5b81811015610bd457610bc9600082610b9d565b600181019050610bb6565b5050565b601f821115610c1957610bea81610ab9565b610bf384610ace565b81016020851015610c02578190505b610c16610c0e85610ace565b830182610bb5565b50505b505050565b600082821c905092915050565b6000610c3c60001984600802610c1e565b1980831691505092915050565b6000610c558383610c2b565b9150826002028217905092915050565b610c6e8261081c565b67ffffffffffffffff811115610c8757610c866105ab565b5b610c918254610a88565b610c9c828285610bd8565b600060209050601f831160018114610ccf5760008415610cbd578287015190505b610cc78582610c49565b865550610d2f565b601f198416610cdd86610ab9565b60005b82811015610d0557848901518255600182019150602085019450602081019050610ce0565b86831015610d225784890151610d1e601f891682610c2b565b8355505b6001600288020188555050505b505050505050565b60006040820190508181036000830152610d518185610862565b90508181036020830152610d658184610862565b9050939250505056fea26469706673582212206a24a6acd34e03670a91c6340554f8c26ea028125b60b4d3e7adc9f4cb43612564736f6c634300081c0033",
  "linkReferences": {},
  "deployedLinkReferences": {}
}