{
  "_format": "hh-sol-artifact-1",
  "contractName": "DAO",
  "sourceName": "contracts/DAO.sol",
  "abi": [
    {
      "inputs": [
        {
          "internalType": "address",
          "name": "_eduToken",
          "type": "address"
        }
      ],
      "stateMutability": "nonpayable",
      "type": "constructor"
    },
    {
      "inputs": [
        {
          "internalType": "address",
          "name": "owner",
          "type": "address"
        }
      ],
      "name": "OwnableInvalidOwner",
      "type": "error"
    },
    {
      "inputs": [
        {
          "internalType": "address",
          "name": "account",
          "type": "address"
        }
      ],
      "name": "OwnableUnauthorizedAccount",
      "type": "error"
    },
    {
      "anonymous": false,
      "inputs": [
        {
          "indexed": true,
          "internalType": "address",
          "name": "previousOwner",
          "type": "address"
        },
        {
          "indexed": true,
          "internalType": "address",
          "name": "newOwner",
          "type": "address"
        }
      ],
      "name": "OwnershipTransferred",
      "type": "event"
    },
    {
      "anonymous": false,
      "inputs": [
        {
          "indexed": true,
          "internalType": "uint256",
          "name": "proposalId",
          "type": "uint256"
        },
        {
          "indexed": false,
          "internalType": "address",
          "name": "creator",
          "type": "address"
        },
        {
          "indexed": false,
          "internalType": "string",
          "name": "description",
          "type": "string"
        }
      ],
      "name": "ProposalCreated",
      "type": "event"
    },
    {
      "anonymous": false,
      "inputs": [
        {
          "indexed": true,
          "internalType": "uint256",
          "name": "proposalId",
          "type": "uint256"
        }
      ],
      "name": "ProposalExecuted",
      "type": "event"
    },
    {
      "anonymous": false,
      "inputs": [
        {
          "indexed": true,
          "internalType": "uint256",
          "name": "proposalId",
          "type": "uint256"
        },
        {
          "indexed": false,
          "internalType": "address",
          "name": "voter",
          "type": "address"
        },
        {
          "indexed": false,
          "internalType": "bool",
          "name": "inFavor",
          "type": "bool"
        }
      ],
      "name": "VoteCasted",
      "type": "event"
    },
    {
      "inputs": [
        {
          "internalType": "string",
          "name": "description",
          "type": "string"
        }
      ],
      "name": "createProposal",
      "outputs": [],
      "stateMutability": "nonpayable",
      "type": "function"
    },
    {
      "inputs": [],
      "name": "eduToken",
      "outputs": [
        {
          "internalType": "contract IERC20",
          "name": "",
          "type": "address"
        }
      ],
      "stateMutability": "view",
      "type": "function"
    },
    {
      "inputs": [
        {
          "internalType": "uint256",
          "name": "proposalId",
          "type": "uint256"
        }
      ],
      "name": "executeProposal",
      "outputs": [],
      "stateMutability": "nonpayable",
      "type": "function"
    },
    {
      "inputs": [
        {
          "internalType": "uint256",
          "name": "",
          "type": "uint256"
        },
        {
          "internalType": "address",
          "name": "",
          "type": "address"
        }
      ],
      "name": "hasVoted",
      "outputs": [
        {
          "internalType": "bool",
          "name": "",
          "type": "bool"
        }
      ],
      "stateMutability": "view",
      "type": "function"
    },
    {
      "inputs": [],
      "name": "owner",
      "outputs": [
        {
          "internalType": "address",
          "name": "",
          "type": "address"
        }
      ],
      "stateMutability": "view",
      "type": "function"
    },
    {
      "inputs": [],
      "name": "proposalCount",
      "outputs": [
        {
          "internalType": "uint256",
          "name": "",
          "type": "uint256"
        }
      ],
      "stateMutability": "view",
      "type": "function"
    },
    {
      "inputs": [
        {
          "internalType": "uint256",
          "name": "",
          "type": "uint256"
        }
      ],
      "name": "proposals",
      "outputs": [
        {
          "internalType": "address",
          "name": "creator",
          "type": "address"
        },
        {
          "internalType": "string",
          "name": "description",
          "type": "string"
        },
        {
          "internalType": "uint256",
          "name": "votesFor",
          "type": "uint256"
        },
        {
          "internalType": "uint256",
          "name": "votesAgainst",
          "type": "uint256"
        },
        {
          "internalType": "bool",
          "name": "executed",
          "type": "bool"
        }
      ],
      "stateMutability": "view",
      "type": "function"
    },
    {
      "inputs": [],
      "name": "renounceOwnership",
      "outputs": [],
      "stateMutability": "nonpayable",
      "type": "function"
    },
    {
      "inputs": [
        {
          "internalType": "address",
          "name": "newOwner",
          "type": "address"
        }
      ],
      "name": "transferOwnership",
      "outputs": [],
      "stateMutability": "nonpayable",
      "type": "function"
    },
    {
      "inputs": [
        {
          "internalType": "uint256",
          "name": "proposalId",
          "type": "uint256"
        },
        {
          "internalType": "bool",
          "name": "inFavor",
          "type": "bool"
        }
      ],
      "name": "vote",
      "outputs": [],
      "stateMutability": "nonpayable",
      "type": "function"
    }
  ],
  "bytecode": "0x608060405234801561001057600080fd5b506040516117ba3803806117ba83398181016040528101906100329190610223565b33600073ffffffffffffffffffffffffffffffffffffffff168173ffffffffffffffffffffffffffffffffffffffff16036100a55760006040517f1e4fbdf700000000000000000000000000000000000000000000000000000000815260040161009c919061025f565b60405180910390fd5b6100b4816100fc60201b60201c565b5080600160006101000a81548173ffffffffffffffffffffffffffffffffffffffff021916908373ffffffffffffffffffffffffffffffffffffffff1602179055505061027a565b60008060009054906101000a900473ffffffffffffffffffffffffffffffffffffffff169050816000806101000a81548173ffffffffffffffffffffffffffffffffffffffff021916908373ffffffffffffffffffffffffffffffffffffffff1602179055508173ffffffffffffffffffffffffffffffffffffffff168173ffffffffffffffffffffffffffffffffffffffff167f8be0079c531659141344cd1fd0a4f28419497f9722a3daafe3b4186f6b6457e060405160405180910390a35050565b600080fd5b600073ffffffffffffffffffffffffffffffffffffffff82169050919050565b60006101f0826101c5565b9050919050565b610200816101e5565b811461020b57600080fd5b50565b60008151905061021d816101f7565b92915050565b600060208284031215610239576102386101c0565b5b60006102478482850161020e565b91505092915050565b610259816101e5565b82525050565b60006020820190506102746000830184610250565b92915050565b611531806102896000396000f3fe608060405234801561001057600080fd5b506004361061009e5760003560e01c80638d878889116100665780638d878889146101495780638da5cb5b14610167578063c9d27afe14610185578063da35c664146101a1578063f2fde38b146101bf5761009e565b8063013cf08b146100a35780630d61b519146100d757806343859632146100f357806349c2a1a614610123578063715018a61461013f575b600080fd5b6100bd60048036038101906100b89190610aa9565b6101db565b6040516100ce959493929190610bd1565b60405180910390f35b6100f160048036038101906100ec9190610aa9565b6102c6565b005b61010d60048036038101906101089190610c57565b6103d6565b60405161011a9190610c97565b60405180910390f35b61013d60048036038101906101389190610de7565b610405565b005b610147610549565b005b61015161055d565b60405161015e9190610e8f565b60405180910390f35b61016f610583565b60405161017c9190610eaa565b60405180910390f35b61019f600480360381019061019a9190610ef1565b6105ac565b005b6101a9610880565b6040516101b69190610f31565b60405180910390f35b6101d960048036038101906101d49190610f4c565b610886565b005b60036020528060005260406000206000915090508060000160009054906101000a900473ffffffffffffffffffffffffffffffffffffffff169080600101805461022490610fa8565b80601f016020809104026020016040519081016040528092919081815260200182805461025090610fa8565b801561029d5780601f106102725761010080835404028352916020019161029d565b820191906000526020600020905b81548152906001019060200180831161028057829003601f168201915b5050505050908060020154908060030154908060040160009054906101000a900460ff16905085565b6102ce61090c565b6000811180156102e057506002548111155b61031f576040517f08c379a000000000000000000000000000000000000000000000000000000000815260040161031690611025565b60405180910390fd5b60006003600083815260200190815260200160002090508060040160009054906101000a900460ff1615610388576040517f08c379a000000000000000000000000000000000000000000000000000000000815260040161037f90611091565b60405180910390fd5b60018160040160006101000a81548160ff021916908315150217905550817f712ae1383f79ac853f8d882153778e0260ef8f03b504e2866e0593e04d2b291f60405160405180910390a25050565b60046020528160005260406000206020528060005260406000206000915091509054906101000a900460ff1681565b60016002600082825461041891906110e0565b925050819055506040518060a001604052803373ffffffffffffffffffffffffffffffffffffffff16815260200182815260200160008152602001600081526020016000151581525060036000600254815260200190815260200160002060008201518160000160006101000a81548173ffffffffffffffffffffffffffffffffffffffff021916908373ffffffffffffffffffffffffffffffffffffffff16021790555060208201518160010190816104d291906112b6565b50604082015181600201556060820151816003015560808201518160040160006101000a81548160ff0219169083151502179055509050506002547f7585f467599d0f008985f231af99293be388626ac16ca59505c2f8f88969cd63338360405161053e929190611388565b60405180910390a250565b61055161090c565b61055b6000610993565b565b600160009054906101000a900473ffffffffffffffffffffffffffffffffffffffff1681565b60008060009054906101000a900473ffffffffffffffffffffffffffffffffffffffff16905090565b6000821180156105be57506002548211155b6105fd576040517f08c379a00000000000000000000000000000000000000000000000000000000081526004016105f490611025565b60405180910390fd5b6004600083815260200190815260200160002060003373ffffffffffffffffffffffffffffffffffffffff1673ffffffffffffffffffffffffffffffffffffffff16815260200190815260200160002060009054906101000a900460ff161561069b576040517f08c379a000000000000000000000000000000000000000000000000000000000815260040161069290611404565b60405180910390fd5b6000600160009054906101000a900473ffffffffffffffffffffffffffffffffffffffff1673ffffffffffffffffffffffffffffffffffffffff166370a08231336040518263ffffffff1660e01b81526004016106f89190610eaa565b602060405180830381865afa158015610715573d6000803e3d6000fd5b505050506040513d601f19601f820116820180604052508101906107399190611439565b90506000811161077e576040517f08c379a0000000000000000000000000000000000000000000000000000000008152600401610775906114b2565b60405180910390fd5b600060036000858152602001908152602001600020905082156107bb57818160020160008282546107af91906110e0565b925050819055506107d7565b818160030160008282546107cf91906110e0565b925050819055505b60016004600086815260200190815260200160002060003373ffffffffffffffffffffffffffffffffffffffff1673ffffffffffffffffffffffffffffffffffffffff16815260200190815260200160002060006101000a81548160ff021916908315150217905550837f5aaa9aad7433112662b9e5ae23b96ed62b00035f413ab908c55607284e0804e233856040516108729291906114d2565b60405180910390a250505050565b60025481565b61088e61090c565b600073ffffffffffffffffffffffffffffffffffffffff168173ffffffffffffffffffffffffffffffffffffffff16036109005760006040517f1e4fbdf70000000000000000000000000000000000000000000000000000000081526004016108f79190610eaa565b60405180910390fd5b61090981610993565b50565b610914610a57565b73ffffffffffffffffffffffffffffffffffffffff16610932610583565b73ffffffffffffffffffffffffffffffffffffffff161461099157610955610a57565b6040517f118cdaa70000000000000000000000000000000000000000000000000000000081526004016109889190610eaa565b60405180910390fd5b565b60008060009054906101000a900473ffffffffffffffffffffffffffffffffffffffff169050816000806101000a81548173ffffffffffffffffffffffffffffffffffffffff021916908373ffffffffffffffffffffffffffffffffffffffff1602179055508173ffffffffffffffffffffffffffffffffffffffff168173ffffffffffffffffffffffffffffffffffffffff167f8be0079c531659141344cd1fd0a4f28419497f9722a3daafe3b4186f6b6457e060405160405180910390a35050565b600033905090565b6000604051905090565b600080fd5b600080fd5b6000819050919050565b610a8681610a73565b8114610a9157600080fd5b50565b600081359050610aa381610a7d565b92915050565b600060208284031215610abf57610abe610a69565b5b6000610acd84828501610a94565b91505092915050565b600073ffffffffffffffffffffffffffffffffffffffff82169050919050565b6000610b0182610ad6565b9050919050565b610b1181610af6565b82525050565b600081519050919050565b600082825260208201905092915050565b60005b83811015610b51578082015181840152602081019050610b36565b60008484015250505050565b6000601f19601f8301169050919050565b6000610b7982610b17565b610b838185610b22565b9350610b93818560208601610b33565b610b9c81610b5d565b840191505092915050565b610bb081610a73565b82525050565b60008115159050919050565b610bcb81610bb6565b82525050565b600060a082019050610be66000830188610b08565b8181036020830152610bf88187610b6e565b9050610c076040830186610ba7565b610c146060830185610ba7565b610c216080830184610bc2565b9695505050505050565b610c3481610af6565b8114610c3f57600080fd5b50565b600081359050610c5181610c2b565b92915050565b60008060408385031215610c6e57610c6d610a69565b5b6000610c7c85828601610a94565b9250506020610c8d85828601610c42565b9150509250929050565b6000602082019050610cac6000830184610bc2565b92915050565b600080fd5b600080fd5b7f4e487b7100000000000000000000000000000000000000000000000000000000600052604160045260246000fd5b610cf482610b5d565b810181811067ffffffffffffffff82111715610d1357610d12610cbc565b5b80604052505050565b6000610d26610a5f565b9050610d328282610ceb565b919050565b600067ffffffffffffffff821115610d5257610d51610cbc565b5b610d5b82610b5d565b9050602081019050919050565b82818337600083830152505050565b6000610d8a610d8584610d37565b610d1c565b905082815260208101848484011115610da657610da5610cb7565b5b610db1848285610d68565b509392505050565b600082601f830112610dce57610dcd610cb2565b5b8135610dde848260208601610d77565b91505092915050565b600060208284031215610dfd57610dfc610a69565b5b600082013567ffffffffffffffff811115610e1b57610e1a610a6e565b5b610e2784828501610db9565b91505092915050565b6000819050919050565b6000610e55610e50610e4b84610ad6565b610e30565b610ad6565b9050919050565b6000610e6782610e3a565b9050919050565b6000610e7982610e5c565b9050919050565b610e8981610e6e565b82525050565b6000602082019050610ea46000830184610e80565b92915050565b6000602082019050610ebf6000830184610b08565b92915050565b610ece81610bb6565b8114610ed957600080fd5b50565b600081359050610eeb81610ec5565b92915050565b60008060408385031215610f0857610f07610a69565b5b6000610f1685828601610a94565b9250506020610f2785828601610edc565b9150509250929050565b6000602082019050610f466000830184610ba7565b92915050565b600060208284031215610f6257610f61610a69565b5b6000610f7084828501610c42565b91505092915050565b7f4e487b7100000000000000000000000000000000000000000000000000000000600052602260045260246000fd5b60006002820490506001821680610fc057607f821691505b602082108103610fd357610fd2610f79565b5b50919050565b7f496e76616c69642070726f706f73616c20494400000000000000000000000000600082015250565b600061100f601383610b22565b915061101a82610fd9565b602082019050919050565b6000602082019050818103600083015261103e81611002565b9050919050565b7f416c726561647920657865637574656400000000000000000000000000000000600082015250565b600061107b601083610b22565b915061108682611045565b602082019050919050565b600060208201905081810360008301526110aa8161106e565b9050919050565b7f4e487b7100000000000000000000000000000000000000000000000000000000600052601160045260246000fd5b60006110eb82610a73565b91506110f683610a73565b925082820190508082111561110e5761110d6110b1565b5b92915050565b60008190508160005260206000209050919050565b60006020601f8301049050919050565b600082821b905092915050565b6000600883026111767fffffffffffffffffffffffffffffffffffffffffffffffffffffffffffffffff82611139565b6111808683611139565b95508019841693508086168417925050509392505050565b60006111b36111ae6111a984610a73565b610e30565b610a73565b9050919050565b6000819050919050565b6111cd83611198565b6111e16111d9826111ba565b848454611146565b825550505050565b600090565b6111f66111e9565b6112018184846111c4565b505050565b5b818110156112255761121a6000826111ee565b600181019050611207565b5050565b601f82111561126a5761123b81611114565b61124484611129565b81016020851015611253578190505b61126761125f85611129565b830182611206565b50505b505050565b600082821c905092915050565b600061128d6000198460080261126f565b1980831691505092915050565b60006112a6838361127c565b9150826002028217905092915050565b6112bf82610b17565b67ffffffffffffffff8111156112d8576112d7610cbc565b5b6112e28254610fa8565b6112ed828285611229565b600060209050601f831160018114611320576000841561130e578287015190505b611318858261129a565b865550611380565b601f19841661132e86611114565b60005b8281101561135657848901518255600182019150602085019450602081019050611331565b86831015611373578489015161136f601f89168261127c565b8355505b6001600288020188555050505b505050505050565b600060408201905061139d6000830185610b08565b81810360208301526113af8184610b6e565b90509392505050565b7f416c726561647920766f74656400000000000000000000000000000000000000600082015250565b60006113ee600d83610b22565b91506113f9826113b8565b602082019050919050565b6000602082019050818103600083015261141d816113e1565b9050919050565b60008151905061143381610a7d565b92915050565b60006020828403121561144f5761144e610a69565b5b600061145d84828501611424565b91505092915050565b7f4d75737420686f6c642045445520746f6b656e7320746f20766f746500000000600082015250565b600061149c601c83610b22565b91506114a782611466565b602082019050919050565b600060208201905081810360008301526114cb8161148f565b9050919050565b60006040820190506114e76000830185610b08565b6114f46020830184610bc2565b939250505056fea2646970667358221220620f5d1ccc23076a9d46b374a96efe5d2a96c2d4bc4046224ac0464e7243c22064736f6c634300081c0033",
  "linkReferences": {},
  "deployedLinkReferences": {}
}